{
  "contractName": "LotteryPot",
  "abi": [
    {
      "inputs": [
        {
          "internalType": "string",
          "name": "_potName",
          "type": "string"
        },
        {
          "internalType": "uint256",
          "name": "_duration",
          "type": "uint256"
        },
        {
          "internalType": "uint256",
          "name": "_minStake",
          "type": "uint256"
        },
        {
          "internalType": "enum LotteryPot.PotType",
          "name": "_potType",
          "type": "uint8"
        },
        {
          "internalType": "address",
          "name": "_owner",
          "type": "address"
        }
      ],
      "stateMutability": "payable",
      "type": "constructor",
      "payable": true
    },
    {
      "anonymous": false,
      "inputs": [
        {
          "indexed": true,
          "internalType": "bool",
          "name": "enabled",
          "type": "bool"
        }
      ],
      "name": "LotteryPotEnabled",
      "type": "event"
    },
    {
      "anonymous": false,
      "inputs": [
        {
          "indexed": true,
          "internalType": "address",
          "name": "previousOwner",
          "type": "address"
        },
        {
          "indexed": true,
          "internalType": "address",
          "name": "newOwner",
          "type": "address"
        }
      ],
      "name": "OwnershipTransferred",
      "type": "event"
    },
    {
      "anonymous": false,
      "inputs": [
        {
          "indexed": true,
          "internalType": "address",
          "name": "participant",
          "type": "address"
        }
      ],
      "name": "ParticipantJoin",
      "type": "event"
    },
    {
      "anonymous": false,
      "inputs": [
        {
          "indexed": true,
          "internalType": "address",
          "name": "participant",
          "type": "address"
        }
      ],
      "name": "ParticipantWithdraw",
      "type": "event"
    },
    {
      "anonymous": false,
      "inputs": [
        {
          "indexed": true,
          "internalType": "address",
          "name": "winner",
          "type": "address"
        }
      ],
      "name": "WinnerDetermined",
      "type": "event"
    },
    {
      "anonymous": false,
      "inputs": [
        {
          "indexed": true,
          "internalType": "address",
          "name": "winner",
          "type": "address"
        },
        {
          "indexed": true,
          "internalType": "uint256",
          "name": "totalStake",
          "type": "uint256"
        }
      ],
      "name": "WinnerWithdraw",
      "type": "event"
    },
    {
      "inputs": [],
      "name": "closedDateTime",
      "outputs": [
        {
          "internalType": "uint256",
          "name": "",
          "type": "uint256"
        }
      ],
      "stateMutability": "view",
      "type": "function",
      "constant": true
    },
    {
      "inputs": [],
      "name": "enabled",
      "outputs": [
        {
          "internalType": "bool",
          "name": "",
          "type": "bool"
        }
      ],
      "stateMutability": "view",
      "type": "function",
      "constant": true
    },
    {
      "inputs": [],
      "name": "factoryAddr",
      "outputs": [
        {
          "internalType": "address",
          "name": "",
          "type": "address"
        }
      ],
      "stateMutability": "view",
      "type": "function",
      "constant": true
    },
    {
      "inputs": [],
      "name": "minStake",
      "outputs": [
        {
          "internalType": "uint256",
          "name": "",
          "type": "uint256"
        }
      ],
      "stateMutability": "view",
      "type": "function",
      "constant": true
    },
    {
      "inputs": [],
      "name": "owner",
      "outputs": [
        {
          "internalType": "address",
          "name": "",
          "type": "address"
        }
      ],
      "stateMutability": "view",
      "type": "function",
      "constant": true
    },
    {
      "inputs": [
        {
          "internalType": "uint256",
          "name": "",
          "type": "uint256"
        }
      ],
      "name": "participants",
      "outputs": [
        {
          "internalType": "address",
          "name": "",
          "type": "address"
        }
      ],
      "stateMutability": "view",
      "type": "function",
      "constant": true
    },
    {
      "inputs": [],
      "name": "potName",
      "outputs": [
        {
          "internalType": "string",
          "name": "",
          "type": "string"
        }
      ],
      "stateMutability": "view",
      "type": "function",
      "constant": true
    },
    {
      "inputs": [],
      "name": "potState",
      "outputs": [
        {
          "internalType": "enum LotteryPot.PotState",
          "name": "",
          "type": "uint8"
        }
      ],
      "stateMutability": "view",
      "type": "function",
      "constant": true
    },
    {
      "inputs": [],
      "name": "potType",
      "outputs": [
        {
          "internalType": "enum LotteryPot.PotType",
          "name": "",
          "type": "uint8"
        }
      ],
      "stateMutability": "view",
      "type": "function",
      "constant": true
    },
    {
      "inputs": [],
      "name": "renounceOwnership",
      "outputs": [],
      "stateMutability": "nonpayable",
      "type": "function"
    },
    {
      "inputs": [],
      "name": "totalStake",
      "outputs": [
        {
          "internalType": "uint256",
          "name": "",
          "type": "uint256"
        }
      ],
      "stateMutability": "view",
      "type": "function",
      "constant": true
    },
    {
      "inputs": [
        {
          "internalType": "address",
          "name": "newOwner",
          "type": "address"
        }
      ],
      "name": "transferOwnership",
      "outputs": [],
      "stateMutability": "nonpayable",
      "type": "function"
    },
    {
      "inputs": [],
      "name": "winner",
      "outputs": [
        {
          "internalType": "address",
          "name": "",
          "type": "address"
        }
      ],
      "stateMutability": "view",
      "type": "function",
      "constant": true
    },
    {
      "stateMutability": "payable",
      "type": "receive",
      "payable": true
    },
    {
      "inputs": [
        {
          "internalType": "address",
          "name": "participant",
          "type": "address"
        }
      ],
      "name": "participate",
      "outputs": [],
      "stateMutability": "payable",
      "type": "function",
      "payable": true
    },
    {
      "inputs": [],
      "name": "participate",
      "outputs": [],
      "stateMutability": "payable",
      "type": "function",
      "payable": true
    },
    {
      "inputs": [],
      "name": "totalParticipants",
      "outputs": [
        {
          "internalType": "uint256",
          "name": "",
          "type": "uint256"
        }
      ],
      "stateMutability": "view",
      "type": "function",
      "constant": true
    },
    {
      "inputs": [],
      "name": "determineWinner",
      "outputs": [
        {
          "internalType": "address",
          "name": "",
          "type": "address"
        }
      ],
      "stateMutability": "nonpayable",
      "type": "function"
    },
    {
      "inputs": [],
      "name": "winnerWithdraw",
      "outputs": [],
      "stateMutability": "nonpayable",
      "type": "function"
    },
    {
      "inputs": [],
      "name": "myStake",
      "outputs": [
        {
          "internalType": "uint256",
          "name": "",
          "type": "uint256"
        }
      ],
      "stateMutability": "view",
      "type": "function",
      "constant": true
    },
    {
      "inputs": [],
      "name": "disableContract",
      "outputs": [
        {
          "internalType": "bool",
          "name": "",
          "type": "bool"
        }
      ],
      "stateMutability": "nonpayable",
      "type": "function"
    },
    {
      "inputs": [],
      "name": "participantWithdraw",
      "outputs": [],
      "stateMutability": "nonpayable",
      "type": "function"
    }
  ],
  "bytecode": "0x60806040526040516200231d3803806200231d833981810160405260a08110156200002957600080fd5b81019080805160405193929190846401000000008211156200004a57600080fd5b838201915060208201858111156200006157600080fd5b82518660018202830111640100000000821117156200007f57600080fd5b8083526020830192505050908051906020019080838360005b83811015620000b557808201518184015260208101905062000098565b50505050905090810190601f168015620000e35780820380516001836020036101000a031916815260200191505b50604052602001805190602001909291908051906020019092919080519060200190929190805190602001909291905050506000620001276200038d60201b60201c565b9050806000806101000a81548173ffffffffffffffffffffffffffffffffffffffff021916908373ffffffffffffffffffffffffffffffffffffffff1602179055508073ffffffffffffffffffffffffffffffffffffffff16600073ffffffffffffffffffffffffffffffffffffffff167f8be0079c531659141344cd1fd0a4f28419497f9722a3daafe3b4186f6b6457e060405160405180910390a3506000831162000220576040517f08c379a000000000000000000000000000000000000000000000000000000000815260040180806020018281038252602b815260200180620022f2602b913960400191505060405180910390fd5b823410156200022e57600080fd5b61012c8410156200023e57600080fd5b6001600660146101000a81548160ff021916908315150217905550846001908051906020019062000271929190620008ff565b506200028c84426200039560201b6200148a1790919060201c565b6002819055508260038190555081600560006101000a81548160ff02191690836001811115620002b857fe5b02179055506000600560016101000a81548160ff02191690836002811115620002dd57fe5b021790555033600660006101000a81548173ffffffffffffffffffffffffffffffffffffffff021916908373ffffffffffffffffffffffffffffffffffffffff16021790555060006004819055503373ffffffffffffffffffffffffffffffffffffffff168173ffffffffffffffffffffffffffffffffffffffff1614620003715762000370816200041e60201b60201c565b5b62000382816200062460201b60201c565b5050505050620009ae565b600033905090565b60008082840190508381101562000414576040517f08c379a000000000000000000000000000000000000000000000000000000000815260040180806020018281038252601b8152602001807f536166654d6174683a206164646974696f6e206f766572666c6f77000000000081525060200191505060405180910390fd5b8091505092915050565b6200042e6200038d60201b60201c565b73ffffffffffffffffffffffffffffffffffffffff16620004546200088660201b60201c565b73ffffffffffffffffffffffffffffffffffffffff1614620004de576040517f08c379a00000000000000000000000000000000000000000000000000000000081526004018080602001828103825260208152602001807f4f776e61626c653a2063616c6c6572206973206e6f7420746865206f776e657281525060200191505060405180910390fd5b600073ffffffffffffffffffffffffffffffffffffffff168173ffffffffffffffffffffffffffffffffffffffff16141562000566576040517f08c379a0000000000000000000000000000000000000000000000000000000008152600401808060200182810382526026815260200180620022cc6026913960400191505060405180910390fd5b8073ffffffffffffffffffffffffffffffffffffffff166000809054906101000a900473ffffffffffffffffffffffffffffffffffffffff1673ffffffffffffffffffffffffffffffffffffffff167f8be0079c531659141344cd1fd0a4f28419497f9722a3daafe3b4186f6b6457e060405160405180910390a3806000806101000a81548173ffffffffffffffffffffffffffffffffffffffff021916908373ffffffffffffffffffffffffffffffffffffffff16021790555050565b600660149054906101000a900460ff166200063e57600080fd5b60025442118015620006775750600060028111156200065957fe5b600560019054906101000a900460ff1660028111156200067557fe5b145b156200068e576200068d620008af60201b60201c565b5b6003543410156200069e57600080fd5b6000806002811115620006ad57fe5b600560019054906101000a900460ff166002811115620006c957fe5b14620006d457600080fd5b6000600760008473ffffffffffffffffffffffffffffffffffffffff1673ffffffffffffffffffffffffffffffffffffffff16815260200190815260200160002054141562000781576008829080600181540180825580915050600190039060005260206000200160009091909190916101000a81548173ffffffffffffffffffffffffffffffffffffffff021916908373ffffffffffffffffffffffffffffffffffffffff1602179055505b620007da34600760008573ffffffffffffffffffffffffffffffffffffffff1673ffffffffffffffffffffffffffffffffffffffff168152602001908152602001600020546200039560201b6200148a1790919060201c565b600760008473ffffffffffffffffffffffffffffffffffffffff1673ffffffffffffffffffffffffffffffffffffffff1681526020019081526020016000208190555062000839346004546200039560201b6200148a1790919060201c565b6004819055508173ffffffffffffffffffffffffffffffffffffffff167f7d64acc9d4044ccfe97ebec406decfbd00c7250c2addbadbd522b2dd40b6d63060405160405180910390a25050565b60008060009054906101000a900473ffffffffffffffffffffffffffffffffffffffff16905090565b6001600560019054906101000a900460ff166002811115620008cd57fe5b016002811115620008da57fe5b600560016101000a81548160ff02191690836002811115620008f857fe5b0217905550565b828054600181600116156101000203166002900490600052602060002090601f016020900481019282601f106200094257805160ff191683800117855562000973565b8280016001018555821562000973579182015b828111156200097257825182559160200191906001019062000955565b5b50905062000982919062000986565b5090565b620009ab91905b80821115620009a75760008160009055506001016200098d565b5090565b90565b61190e80620009be6000396000f3fe60806040526004361061012e5760003560e01c8063955cdfb1116100ab578063d11711a21161006f578063d11711a21461051c578063d32d9b6e14610526578063dfbf53ae1461053d578063e10b650b14610594578063f29ee083146105ab578063f2fde38b146105e45761013e565b8063955cdfb11461039b578063963671be146103c6578063a2392a931461041d578063a26dbf26146104ad578063b91038c7146104d85761013e565b8063715018a6116100f2578063715018a6146102a8578063894ba833146102bf5780638b0e9f3f146102ee5780638da5cb5b1461031957806390a006c2146103705761013e565b8063238dafe014610143578063296cf5191461017257806333b16d93146101ab57806335c1d34914610202578063375b3c0a1461027d5761013e565b3661013e5761013c33610635565b005b600080fd5b34801561014f57600080fd5b50610158610877565b604051808215151515815260200191505060405180910390f35b34801561017e57600080fd5b5061018761088a565b6040518082600281111561019757fe5b60ff16815260200191505060405180910390f35b3480156101b757600080fd5b506101c061089d565b604051808273ffffffffffffffffffffffffffffffffffffffff1673ffffffffffffffffffffffffffffffffffffffff16815260200191505060405180910390f35b34801561020e57600080fd5b5061023b6004803603602081101561022557600080fd5b8101908080359060200190929190505050610a86565b604051808273ffffffffffffffffffffffffffffffffffffffff1673ffffffffffffffffffffffffffffffffffffffff16815260200191505060405180910390f35b34801561028957600080fd5b50610292610ac2565b6040518082815260200191505060405180910390f35b3480156102b457600080fd5b506102bd610ac8565b005b3480156102cb57600080fd5b506102d4610c36565b604051808215151515815260200191505060405180910390f35b3480156102fa57600080fd5b50610303610d3b565b6040518082815260200191505060405180910390f35b34801561032557600080fd5b5061032e610d41565b604051808273ffffffffffffffffffffffffffffffffffffffff1673ffffffffffffffffffffffffffffffffffffffff16815260200191505060405180910390f35b34801561037c57600080fd5b50610385610d6a565b6040518082815260200191505060405180910390f35b3480156103a757600080fd5b506103b0610d70565b6040518082815260200191505060405180910390f35b3480156103d257600080fd5b506103db610db7565b604051808273ffffffffffffffffffffffffffffffffffffffff1673ffffffffffffffffffffffffffffffffffffffff16815260200191505060405180910390f35b34801561042957600080fd5b50610432610ddd565b6040518080602001828103825283818151815260200191508051906020019080838360005b83811015610472578082015181840152602081019050610457565b50505050905090810190601f16801561049f5780820380516001836020036101000a031916815260200191505b509250505060405180910390f35b3480156104b957600080fd5b506104c2610e7b565b6040518082815260200191505060405180910390f35b61051a600480360360208110156104ee57600080fd5b81019080803573ffffffffffffffffffffffffffffffffffffffff169060200190929190505050610635565b005b610524610e88565b005b34801561053257600080fd5b5061053b610e93565b005b34801561054957600080fd5b506105526110d3565b604051808273ffffffffffffffffffffffffffffffffffffffff1673ffffffffffffffffffffffffffffffffffffffff16815260200191505060405180910390f35b3480156105a057600080fd5b506105a96110f9565b005b3480156105b757600080fd5b506105c0611284565b604051808260018111156105d057fe5b60ff16815260200191505060405180910390f35b3480156105f057600080fd5b506106336004803603602081101561060757600080fd5b81019080803573ffffffffffffffffffffffffffffffffffffffff169060200190929190505050611297565b005b600660149054906101000a900460ff1661064e57600080fd5b6002544211801561068457506000600281111561066757fe5b600560019054906101000a900460ff16600281111561068257fe5b145b1561069257610691611512565b5b6003543410156106a157600080fd5b60008060028111156106af57fe5b600560019054906101000a900460ff1660028111156106ca57fe5b146106d457600080fd5b6000600760008473ffffffffffffffffffffffffffffffffffffffff1673ffffffffffffffffffffffffffffffffffffffff168152602001908152602001600020541415610780576008829080600181540180825580915050600190039060005260206000200160009091909190916101000a81548173ffffffffffffffffffffffffffffffffffffffff021916908373ffffffffffffffffffffffffffffffffffffffff1602179055505b6107d234600760008573ffffffffffffffffffffffffffffffffffffffff1673ffffffffffffffffffffffffffffffffffffffff1681526020019081526020016000205461148a90919063ffffffff16565b600760008473ffffffffffffffffffffffffffffffffffffffff1673ffffffffffffffffffffffffffffffffffffffff1681526020019081526020016000208190555061082a3460045461148a90919063ffffffff16565b6004819055508173ffffffffffffffffffffffffffffffffffffffff167f7d64acc9d4044ccfe97ebec406decfbd00c7250c2addbadbd522b2dd40b6d63060405160405180910390a25050565b600660149054906101000a900460ff1681565b600560019054906101000a900460ff1681565b6000600660149054906101000a900460ff166108b857600080fd5b600254421180156108ee5750600060028111156108d157fe5b600560019054906101000a900460ff1660028111156108ec57fe5b145b156108fc576108fb611512565b5b600180600281111561090a57fe5b600560019054906101000a900460ff16600281111561092557fe5b1461092f57600080fd5b600073ffffffffffffffffffffffffffffffffffffffff16600560029054906101000a900473ffffffffffffffffffffffffffffffffffffffff1673ffffffffffffffffffffffffffffffffffffffff16146109af57600560029054906101000a900473ffffffffffffffffffffffffffffffffffffffff169150610a82565b6109b761155f565b600560026101000a81548173ffffffffffffffffffffffffffffffffffffffff021916908373ffffffffffffffffffffffffffffffffffffffff160217905550600560029054906101000a900473ffffffffffffffffffffffffffffffffffffffff1673ffffffffffffffffffffffffffffffffffffffff167ffd6364b862a59cfff64f575548484f731b3e3a74b202da7feeb611803811fb0960405160405180910390a2600560029054906101000a900473ffffffffffffffffffffffffffffffffffffffff1691505b5090565b60088181548110610a9357fe5b906000526020600020016000915054906101000a900473ffffffffffffffffffffffffffffffffffffffff1681565b60035481565b610ad0611749565b73ffffffffffffffffffffffffffffffffffffffff16610aee610d41565b73ffffffffffffffffffffffffffffffffffffffff1614610b77576040517f08c379a00000000000000000000000000000000000000000000000000000000081526004018080602001828103825260208152602001807f4f776e61626c653a2063616c6c6572206973206e6f7420746865206f776e657281525060200191505060405180910390fd5b600073ffffffffffffffffffffffffffffffffffffffff166000809054906101000a900473ffffffffffffffffffffffffffffffffffffffff1673ffffffffffffffffffffffffffffffffffffffff167f8be0079c531659141344cd1fd0a4f28419497f9722a3daafe3b4186f6b6457e060405160405180910390a360008060006101000a81548173ffffffffffffffffffffffffffffffffffffffff021916908373ffffffffffffffffffffffffffffffffffffffff160217905550565b6000600660009054906101000a900473ffffffffffffffffffffffffffffffffffffffff16600073ffffffffffffffffffffffffffffffffffffffff168173ffffffffffffffffffffffffffffffffffffffff1614158015610cc357503373ffffffffffffffffffffffffffffffffffffffff168173ffffffffffffffffffffffffffffffffffffffff16145b610ccc57600080fd5b6000600660146101000a81548160ff021916908315150217905550600660149054906101000a900460ff1615157fb400ded6898cb67eeeab2c3bdc2b2f5f3aafb3eeef3c2eb49d002c8f1fa0fd6760405160405180910390a2600660149054906101000a900460ff1691505090565b60045481565b60008060009054906101000a900473ffffffffffffffffffffffffffffffffffffffff16905090565b60025481565b6000600760003373ffffffffffffffffffffffffffffffffffffffff1673ffffffffffffffffffffffffffffffffffffffff16815260200190815260200160002054905090565b600660009054906101000a900473ffffffffffffffffffffffffffffffffffffffff1681565b60018054600181600116156101000203166002900480601f016020809104026020016040519081016040528092919081815260200182805460018160011615610100020316600290048015610e735780601f10610e4857610100808354040283529160200191610e73565b820191906000526020600020905b815481529060010190602001808311610e5657829003601f168201915b505050505081565b6000600880549050905090565b610e9133610635565b565b600660149054906101000a900460ff1615610ead57600080fd5b60025442118015610ee3575060006002811115610ec657fe5b600560019054906101000a900460ff166002811115610ee157fe5b145b15610ef157610ef0611512565b5b6002806002811115610eff57fe5b600560019054906101000a900460ff166002811115610f1a57fe5b1415610f2557600080fd5b336000600760008373ffffffffffffffffffffffffffffffffffffffff1673ffffffffffffffffffffffffffffffffffffffff1681526020019081526020016000205411610f7257600080fd5b600760003373ffffffffffffffffffffffffffffffffffffffff1673ffffffffffffffffffffffffffffffffffffffff16815260200190815260200160002054471015610fbb57fe5b6000600760003373ffffffffffffffffffffffffffffffffffffffff1673ffffffffffffffffffffffffffffffffffffffff1681526020019081526020016000205490506000600760003373ffffffffffffffffffffffffffffffffffffffff1673ffffffffffffffffffffffffffffffffffffffff168152602001908152602001600020819055503373ffffffffffffffffffffffffffffffffffffffff166108fc829081150290604051600060405180830381858888f1935050505015801561108a573d6000803e3d6000fd5b503373ffffffffffffffffffffffffffffffffffffffff167f3e266c2ad2cc202f17483930e6b16678a30d79012d7293b281995b09ff3dd32760405160405180910390a2505050565b600560029054906101000a900473ffffffffffffffffffffffffffffffffffffffff1681565b600660149054906101000a900460ff1661111257600080fd5b600180600281111561112057fe5b600560019054906101000a900460ff16600281111561113b57fe5b1461114557600080fd5b600560029054906101000a900473ffffffffffffffffffffffffffffffffffffffff16600073ffffffffffffffffffffffffffffffffffffffff168173ffffffffffffffffffffffffffffffffffffffff16141580156111d057503373ffffffffffffffffffffffffffffffffffffffff168173ffffffffffffffffffffffffffffffffffffffff16145b6111d957600080fd5b6004544710156111e557fe5b600060045490503373ffffffffffffffffffffffffffffffffffffffff166108fc829081150290604051600060405180830381858888f19350505050158015611232573d6000803e3d6000fd5b50803373ffffffffffffffffffffffffffffffffffffffff167f30feb9cca70a47eaac8989afbf877fcbd223cc28379154f2501d66e410c0976260405160405180910390a350611280611512565b5050565b600560009054906101000a900460ff1681565b61129f611749565b73ffffffffffffffffffffffffffffffffffffffff166112bd610d41565b73ffffffffffffffffffffffffffffffffffffffff1614611346576040517f08c379a00000000000000000000000000000000000000000000000000000000081526004018080602001828103825260208152602001807f4f776e61626c653a2063616c6c6572206973206e6f7420746865206f776e657281525060200191505060405180910390fd5b600073ffffffffffffffffffffffffffffffffffffffff168173ffffffffffffffffffffffffffffffffffffffff1614156113cc576040517f08c379a00000000000000000000000000000000000000000000000000000000081526004018080602001828103825260268152602001806118b36026913960400191505060405180910390fd5b8073ffffffffffffffffffffffffffffffffffffffff166000809054906101000a900473ffffffffffffffffffffffffffffffffffffffff1673ffffffffffffffffffffffffffffffffffffffff167f8be0079c531659141344cd1fd0a4f28419497f9722a3daafe3b4186f6b6457e060405160405180910390a3806000806101000a81548173ffffffffffffffffffffffffffffffffffffffff021916908373ffffffffffffffffffffffffffffffffffffffff16021790555050565b600080828401905083811015611508576040517f08c379a000000000000000000000000000000000000000000000000000000000815260040180806020018281038252601b8152602001807f536166654d6174683a206164646974696f6e206f766572666c6f77000000000081525060200191505060405180910390fd5b8091505092915050565b6001600560019054906101000a900460ff16600281111561152f57fe5b01600281111561153b57fe5b600560016101000a81548160ff0219169083600281111561155857fe5b0217905550565b600080600181111561156d57fe5b600560009054906101000a900460ff16600181111561158857fe5b14156115e057600061159e600880549050611751565b9050600881815481106115ad57fe5b9060005260206000200160009054906101000a900473ffffffffffffffffffffffffffffffffffffffff16915050611746565b60006115ed600454611751565b905060008090505b600760006008838154811061160657fe5b9060005260206000200160009054906101000a900473ffffffffffffffffffffffffffffffffffffffff1673ffffffffffffffffffffffffffffffffffffffff1673ffffffffffffffffffffffffffffffffffffffff16815260200190815260200160002054821115611709576116fc600760006008848154811061168757fe5b9060005260206000200160009054906101000a900473ffffffffffffffffffffffffffffffffffffffff1673ffffffffffffffffffffffffffffffffffffffff1673ffffffffffffffffffffffffffffffffffffffff16815260200190815260200160002054836117a690919063ffffffff16565b91506001810190506115f5565b6008818154811061171657fe5b9060005260206000200160009054906101000a900473ffffffffffffffffffffffffffffffffffffffff16925050505b90565b600033905090565b600061179f824243446040516020018084815260200183815260200182815260200193505050506040516020818303038152906040528051906020012060001c61182990919063ffffffff16565b9050919050565b60008282111561181e576040517f08c379a000000000000000000000000000000000000000000000000000000000815260040180806020018281038252601e8152602001807f536166654d6174683a207375627472616374696f6e206f766572666c6f77000081525060200191505060405180910390fd5b818303905092915050565b60008082116118a0576040517f08c379a00000000000000000000000000000000000000000000000000000000081526004018080602001828103825260188152602001807f536166654d6174683a206d6f64756c6f206279207a65726f000000000000000081525060200191505060405180910390fd5b8183816118a957fe5b0690509291505056fe4f776e61626c653a206e6577206f776e657220697320746865207a65726f2061646472657373a26469706673582212204ce5b6b17a9de811b50015dc7a5015ad04e781c4ed98eda92cc56f4c2d92eaa264736f6c634300060a00334f776e61626c653a206e6577206f776e657220697320746865207a65726f2061646472657373546865206d696e696d756d207374616b652068617320746f2062652067726561746572207468616e20302e",
  "immutableReferences": {},
  "source": "pragma solidity 0.6.10;\n\nimport \"openzeppelin-solidity/contracts/access/Ownable.sol\";\nimport \"openzeppelin-solidity/contracts/math/SafeMath.sol\";\n\n/// @author Jimmy Chu\n/// @title Lottery Pot Contract\ncontract LotteryPot is Ownable {\n    using SafeMath for uint256;\n\n    // Pot closed time has to be at least 5 mins from current.\n    uint256 constant MIN_DURATION = 300;\n\n    // Basic info\n    string public potName;\n    uint256 public closedDateTime;\n    uint256 public minStake;\n    uint256 public totalStake;\n\n    // equalShare - everyone has equal chance of winning in the pot.\n    //   If there are x people in the pot, each winning chance is 1/x.\n    //\n    // weightedShare - winning chance is determined by how much a player\n    //   contributed to the pot.\n    //   If there are three players, contributing [x, y, z] amount to the pot,\n    //   player 2 has the winning chance of y/(x+y+z).\n    enum PotType {equalShare, weightedShare}\n    PotType public potType;\n\n    enum PotState {open, closed, stakeWithdrawn}\n    PotState public potState;\n\n    address public winner;\n\n    // circuit-breaker can only be called from the factory. So we want to\n    //   save the factory address down.\n    address public factoryAddr;\n\n    // allow the public to query if this factory contract is enabled.\n    bool public enabled;\n\n    // Pot stakes - using mapping iterator pattern.\n    // To keep privacy, we don't allow user to query for participant stakes directly.\n    // But we have a myStake() method allowing participant to query his own stake.\n    mapping(address => uint256) private participantStakes;\n    address[] public participants;\n\n    // --- Events Declaration ---\n\n    event ParticipantJoin(address indexed participant);\n\n    event ParticipantWithdraw(address indexed participant);\n\n    event WinnerDetermined(address indexed winner);\n\n    event WinnerWithdraw(address indexed winner, uint256 indexed totalStake);\n\n    event LotteryPotEnabled(bool indexed enabled);\n\n    // --- Functions Modifier ---\n\n    modifier aboveMinStake {\n        require(msg.value >= minStake);\n        _;\n    }\n\n    modifier timeTransitions {\n        if (now > closedDateTime && potState == PotState.open) {\n            nextState();\n        }\n        _;\n    }\n\n    modifier atState(PotState state) {\n        require(potState == state);\n        _;\n    }\n\n    modifier notAtState(PotState state) {\n        require(potState != state);\n        _;\n    }\n\n    modifier onlyBy(address addr) {\n        require(addr != address(0) && addr == msg.sender);\n        _;\n    }\n\n    modifier participantHasStake(address sender) {\n        require(participantStakes[sender] > 0);\n        _;\n    }\n\n    modifier transitionNext() {\n        _;\n        nextState();\n    }\n\n    // circuit-breaker pattern\n    modifier isEnabled {\n        require(enabled);\n        _;\n    }\n\n    modifier isDisabled {\n        require(!enabled);\n        _;\n    }\n\n    // --- end: circuit-breaker pattern\n\n    /// Create a new LotteryPot contract\n    /// @param _potName - Name of the lottery pot\n    /// @param _duration - The duration of the pot `open` period\n    /// @param _minStake - The minimum stake required to join the lottery pot\n    /// @param _potType - type of the pot\n    /// @param _owner - the owner to be recognized by this contract. Not necessarily `msg.sender` nor `tx.origin` for flexibility.\n    constructor(\n        string memory _potName,\n        uint256 _duration,\n        uint256 _minStake,\n        PotType _potType,\n        address _owner\n    ) public payable {\n        require(_minStake > 0, \"The minimum stake has to be greater than 0.\");\n        require(msg.value >= _minStake);\n        require(_duration >= MIN_DURATION);\n\n        enabled = true;\n        potName = _potName;\n        closedDateTime = now.add(_duration);\n        minStake = _minStake;\n        potType = _potType;\n        potState = PotState.open;\n\n        // Lottery Pot creation should be called from its factory.\n        factoryAddr = msg.sender;\n        totalStake = 0;\n\n        // Transfer ownership to the owner, because it defaults to msg.sender\n        //   by OpenZeppelin\n        if (_owner != msg.sender) {\n            transferOwnership(_owner);\n        }\n\n        // The creator also need to participate in the game.\n        participate(_owner);\n    }\n\n    /// For a player to join in the game.\n    /// @dev Note that we also allow an existing participant to add stake into the game.\n    /// @param participant - address of the participant\n    function participate(address participant)\n        public\n        payable\n        isEnabled\n        timeTransitions\n        aboveMinStake\n        atState(PotState.open)\n    {\n        // This is a new participant, push into the array\n        if (participantStakes[participant] == 0) {\n            participants.push(participant);\n        }\n        participantStakes[participant] = participantStakes[participant].add(\n            msg.value\n        );\n        totalStake = totalStake.add(msg.value);\n        emit ParticipantJoin(participant);\n    }\n\n    /// Convenient method for `msg.sender` to participate in the game.\n    function participate() public payable {\n        participate(msg.sender);\n    }\n\n    /// Fallback function defaults to participating in the game.\n    receive() external payable {\n        participate(msg.sender);\n    }\n\n    /// Internal function for advancing the pot state.\n    function nextState() internal {\n        potState = PotState(uint256(potState) + 1);\n    }\n\n    /// Retrieving number of participants in the game\n    /// @return Number of participants in the game\n    function totalParticipants() external view returns (uint256) {\n        return participants.length;\n    }\n\n    /// Determine the winner of the pot, actual algorithm is delegated to an internal function\n    /// @dev Purposefully make this function allowed to be run by anybody, not just the contract owner.\n    /// @return Address of the winner\n    function determineWinner()\n        public\n        isEnabled\n        timeTransitions\n        atState(PotState.closed)\n        returns (address)\n    {\n        if (winner != address(0)) return winner;\n\n        winner = determineWinnerInternal();\n        emit WinnerDetermined(winner);\n        return winner;\n    }\n\n    /// Determine the winner of the lottery pot.\n    /// @return Address of the winner\n    function determineWinnerInternal() internal view returns (address) {\n        // Dealing with equalShare\n        if (potType == PotType.equalShare) {\n            uint256 index = getRandom(participants.length);\n            return participants[index];\n        }\n\n        // Dealing with weightedShare\n        uint256 remaining = getRandom(totalStake);\n        uint256 index = 0;\n        while (remaining > participantStakes[participants[index]]) {\n            remaining = remaining.sub(participantStakes[participants[index]]);\n            index += 1;\n        }\n        return participants[index];\n    }\n\n    /// Generate a random value\n    /// @param len - the generated value is between 0 to len, exclusively.\n    /// @return A random number\n    function getRandom(uint256 len) internal view returns (uint256) {\n        // Note: We are aware that miners can tweak the timestamp within 15s to\n        //   calc. result potentially favorable to them, so we also use\n        //   `block.difficulty` and `block.number` to add randomness that cannot\n        //   be controlled by miners.\n\n        return\n            uint256(\n                keccak256(\n                    abi.encodePacked(\n                        block.timestamp,\n                        block.number,\n                        block.difficulty\n                    )\n                )\n            )\n                .mod(len);\n    }\n\n    /// Allowing winner to withdraw money.\n    /// @dev in order to prevent withrawal address is a malicious contract, we use check-effect-interaction pattern inside.\n    function winnerWithdraw()\n        public\n        isEnabled\n        atState(PotState.closed)\n        onlyBy(winner)\n        transitionNext\n    {\n        // Using check-effect-interaction pattern\n        // 1. Check - done by modifiers\n\n        // Invariant check: make sure the contract has enough balance to be withdrawn from.\n        assert(address(this).balance >= totalStake);\n\n        // 2. Effect\n        //   But we still want to transition to next state only after successful\n        //   winner withdrawal.\n        uint256 stake = totalStake;\n\n        // we don't reset totalStake to 0, so we have a record of how big the\n        //   lottery pot is.\n\n        // 3. Interaction\n        msg.sender.transfer(stake);\n        emit WinnerWithdraw(msg.sender, stake);\n    }\n\n    /// Allow participant to check his own stake\n    /// @return stake of the `msg.sender` in the pot\n    function myStake() public view returns (uint256) {\n        return participantStakes[msg.sender];\n    }\n\n    /// Disable this contract.\n    /// Once a contract is disabled, it cannot be enable back.\n    /// @dev Only honor request called from its factory, so only the platform admin should call this method.\n    /// @return `enabled` status of this contract\n    function disableContract() public onlyBy(factoryAddr) returns (bool) {\n        enabled = false;\n        emit LotteryPotEnabled(enabled);\n        return enabled;\n    }\n\n    /// Allow participants to withdraw money when contract is rendered disabled\n    /// @dev Also want to check participants are not withdrawing from a pot that have all stakes withdrawn.\n    function participantWithdraw()\n        public\n        isDisabled\n        timeTransitions\n        notAtState(PotState.stakeWithdrawn)\n        participantHasStake(msg.sender)\n    {\n        // Using check-effect-interaction pattern\n        // 1. Check - done by modifiers\n\n        // Invariant check: make sure the contract has enough balance to be withdrawn from.\n        assert(address(this).balance >= participantStakes[msg.sender]);\n\n        // 2. Effect - set the participantStake = 0\n        uint256 stake = participantStakes[msg.sender];\n        participantStakes[msg.sender] = 0;\n\n        // 3. Interaction - tranfer\n        msg.sender.transfer(stake);\n        emit ParticipantWithdraw(msg.sender);\n    }\n}\n",
  "sourcePath": "/Users/edoardofoco/Documents/Projects/Personal/lottery-dapp/smart-contract/contracts/LotteryPot.sol",
  "compiler": {
    "name": "solc",
    "version": "0.6.10+commit.00c0fcaf.Emscripten.clang"
  },
  "schemaVersion": "3.4.1",
  "updatedAt": "2021-06-17T18:43:08.684Z",
  "networkType": "ethereum",
  "devdoc": {
    "author": "Jimmy Chu",
    "methods": {
      "constructor": {
        "params": {
          "_duration": "- The duration of the pot `open` period",
          "_minStake": "- The minimum stake required to join the lottery pot",
          "_owner": "- the owner to be recognized by this contract. Not necessarily `msg.sender` nor `tx.origin` for flexibility.",
          "_potName": "- Name of the lottery pot",
          "_potType": "- type of the pot"
        }
      },
      "determineWinner()": {
        "details": "Purposefully make this function allowed to be run by anybody, not just the contract owner.",
        "returns": {
          "_0": "Address of the winner"
        }
      },
      "disableContract()": {
        "details": "Only honor request called from its factory, so only the platform admin should call this method.",
        "returns": {
          "_0": "`enabled` status of this contract"
        }
      },
      "myStake()": {
        "returns": {
          "_0": "stake of the `msg.sender` in the pot"
        }
      },
      "owner()": {
        "details": "Returns the address of the current owner."
      },
      "participantWithdraw()": {
        "details": "Also want to check participants are not withdrawing from a pot that have all stakes withdrawn."
      },
      "participate(address)": {
        "details": "Note that we also allow an existing participant to add stake into the game.",
        "params": {
          "participant": "- address of the participant"
        }
      },
      "renounceOwnership()": {
        "details": "Leaves the contract without owner. It will not be possible to call `onlyOwner` functions anymore. Can only be called by the current owner. NOTE: Renouncing ownership will leave the contract without an owner, thereby removing any functionality that is only available to the owner."
      },
      "totalParticipants()": {
        "returns": {
          "_0": "Number of participants in the game"
        }
      },
      "transferOwnership(address)": {
        "details": "Transfers ownership of the contract to a new account (`newOwner`). Can only be called by the current owner."
      },
      "winnerWithdraw()": {
        "details": "in order to prevent withrawal address is a malicious contract, we use check-effect-interaction pattern inside."
      }
    },
    "title": "Lottery Pot Contract"
  },
  "userdoc": {
    "methods": {
      "constructor": "Create a new LotteryPot contract",
      "determineWinner()": {
        "notice": "Determine the winner of the pot, actual algorithm is delegated to an internal function"
      },
      "disableContract()": {
        "notice": "Disable this contract. Once a contract is disabled, it cannot be enable back."
      },
      "myStake()": {
        "notice": "Allow participant to check his own stake"
      },
      "participantWithdraw()": {
        "notice": "Allow participants to withdraw money when contract is rendered disabled"
      },
      "participate()": {
        "notice": "Convenient method for `msg.sender` to participate in the game."
      },
      "participate(address)": {
        "notice": "For a player to join in the game."
      },
      "totalParticipants()": {
        "notice": "Retrieving number of participants in the game"
      },
      "winnerWithdraw()": {
        "notice": "Allowing winner to withdraw money."
      }
    }
  }
}