{
  "contractName": "LotteryPotFactory",
  "abi": [
    {
      "inputs": [],
      "stateMutability": "nonpayable",
      "type": "constructor"
    },
    {
      "anonymous": false,
      "inputs": [
        {
          "indexed": true,
          "internalType": "bool",
          "name": "enabled",
          "type": "bool"
        }
      ],
      "name": "LotteryPotFactoryEnabled",
      "type": "event"
    },
    {
      "anonymous": false,
      "inputs": [
        {
          "indexed": true,
          "internalType": "address",
          "name": "previousOwner",
          "type": "address"
        },
        {
          "indexed": true,
          "internalType": "address",
          "name": "newOwner",
          "type": "address"
        }
      ],
      "name": "OwnershipTransferred",
      "type": "event"
    },
    {
      "inputs": [],
      "name": "enabled",
      "outputs": [
        {
          "internalType": "bool",
          "name": "",
          "type": "bool"
        }
      ],
      "stateMutability": "view",
      "type": "function",
      "constant": true
    },
    {
      "inputs": [
        {
          "internalType": "uint256",
          "name": "",
          "type": "uint256"
        }
      ],
      "name": "lotteryPots",
      "outputs": [
        {
          "internalType": "address",
          "name": "",
          "type": "address"
        }
      ],
      "stateMutability": "view",
      "type": "function",
      "constant": true
    },
    {
      "inputs": [],
      "name": "owner",
      "outputs": [
        {
          "internalType": "address",
          "name": "",
          "type": "address"
        }
      ],
      "stateMutability": "view",
      "type": "function",
      "constant": true
    },
    {
      "inputs": [],
      "name": "renounceOwnership",
      "outputs": [],
      "stateMutability": "nonpayable",
      "type": "function"
    },
    {
      "inputs": [
        {
          "internalType": "address",
          "name": "newOwner",
          "type": "address"
        }
      ],
      "name": "transferOwnership",
      "outputs": [],
      "stateMutability": "nonpayable",
      "type": "function"
    },
    {
      "inputs": [
        {
          "internalType": "string",
          "name": "potName",
          "type": "string"
        },
        {
          "internalType": "uint256",
          "name": "duration",
          "type": "uint256"
        },
        {
          "internalType": "uint256",
          "name": "minStake",
          "type": "uint256"
        },
        {
          "internalType": "enum LotteryPot.PotType",
          "name": "potType",
          "type": "uint8"
        }
      ],
      "name": "createLotteryPot",
      "outputs": [
        {
          "internalType": "contract LotteryPot",
          "name": "",
          "type": "address"
        }
      ],
      "stateMutability": "payable",
      "type": "function",
      "payable": true
    },
    {
      "inputs": [],
      "name": "getLotteryPots",
      "outputs": [
        {
          "internalType": "address[]",
          "name": "",
          "type": "address[]"
        }
      ],
      "stateMutability": "view",
      "type": "function",
      "constant": true
    },
    {
      "inputs": [],
      "name": "toggleEnabled",
      "outputs": [
        {
          "internalType": "bool",
          "name": "",
          "type": "bool"
        }
      ],
      "stateMutability": "nonpayable",
      "type": "function"
    },
    {
      "inputs": [],
      "name": "destroy",
      "outputs": [],
      "stateMutability": "nonpayable",
      "type": "function"
    },
    {
      "inputs": [
        {
          "internalType": "address payable",
          "name": "potAddr",
          "type": "address"
        }
      ],
      "name": "disableLotteryPot",
      "outputs": [
        {
          "internalType": "bool",
          "name": "",
          "type": "bool"
        }
      ],
      "stateMutability": "nonpayable",
      "type": "function"
    }
  ],
  "bytecode": "0x608060405234801561001057600080fd5b5060006100216100df60201b60201c565b9050806000806101000a81548173ffffffffffffffffffffffffffffffffffffffff021916908373ffffffffffffffffffffffffffffffffffffffff1602179055508073ffffffffffffffffffffffffffffffffffffffff16600073ffffffffffffffffffffffffffffffffffffffff167f8be0079c531659141344cd1fd0a4f28419497f9722a3daafe3b4186f6b6457e060405160405180910390a3506001600360006101000a81548160ff0219169083151502179055506100e7565b600033905090565b61320d806100f66000396000f3fe6080604052600436106200009e5760003560e01c80638da5cb5b11620000615780638da5cb5b14620001ba578063940722db1462000214578063c9acdc421462000281578063e7052bd414620003a3578063f2fde38b1462000414576200009e565b8063238dafe014620000a35780633044b56c14620000d5578063715018a6146200010757806380c02153146200012157806383197ef014620001a0575b600080fd5b348015620000b057600080fd5b50620000bb62000469565b604051808215151515815260200191505060405180910390f35b348015620000e257600080fd5b50620000ed6200047c565b604051808215151515815260200191505060405180910390f35b3480156200011457600080fd5b506200011f620005af565b005b3480156200012e57600080fd5b506200015e600480360360208110156200014757600080fd5b810190808035906020019092919050505062000722565b604051808273ffffffffffffffffffffffffffffffffffffffff1673ffffffffffffffffffffffffffffffffffffffff16815260200191505060405180910390f35b348015620001ad57600080fd5b50620001b86200075f565b005b348015620001c757600080fd5b50620001d262000847565b604051808273ffffffffffffffffffffffffffffffffffffffff1673ffffffffffffffffffffffffffffffffffffffff16815260200191505060405180910390f35b3480156200022157600080fd5b5062000267600480360360208110156200023a57600080fd5b81019080803573ffffffffffffffffffffffffffffffffffffffff16906020019092919050505062000870565b604051808215151515815260200191505060405180910390f35b62000361600480360360808110156200029957600080fd5b8101908080359060200190640100000000811115620002b757600080fd5b820183602082011115620002ca57600080fd5b80359060200191846001830284011164010000000083111715620002ed57600080fd5b91908080601f016020809104026020016040519081016040528093929190818152602001838380828437600081840152601f19601f8201169050808301925050505050505091929192908035906020019092919080359060200190929190803560ff16906020019092919050505062000a0c565b604051808273ffffffffffffffffffffffffffffffffffffffff1673ffffffffffffffffffffffffffffffffffffffff16815260200191505060405180910390f35b348015620003b057600080fd5b50620003bb62000bf4565b6040518080602001828103825283818151815260200191508051906020019060200280838360005b8381101562000400578082015181840152602081019050620003e3565b505050509050019250505060405180910390f35b3480156200042157600080fd5b5062000467600480360360208110156200043a57600080fd5b81019080803573ffffffffffffffffffffffffffffffffffffffff16906020019092919050505062000c84565b005b600360009054906101000a900460ff1681565b60006200048862000e7e565b73ffffffffffffffffffffffffffffffffffffffff16620004a862000847565b73ffffffffffffffffffffffffffffffffffffffff161462000532576040517f08c379a00000000000000000000000000000000000000000000000000000000081526004018080602001828103825260208152602001807f4f776e61626c653a2063616c6c6572206973206e6f7420746865206f776e657281525060200191505060405180910390fd5b600360009054906101000a900460ff1615600360006101000a81548160ff021916908315150217905550600360009054906101000a900460ff1615157fee1be9a6f412e60ab159db6cd09f3a818f73568d4f3fe3561d1c914f1130662060405160405180910390a2600360009054906101000a900460ff16905090565b620005b962000e7e565b73ffffffffffffffffffffffffffffffffffffffff16620005d962000847565b73ffffffffffffffffffffffffffffffffffffffff161462000663576040517f08c379a00000000000000000000000000000000000000000000000000000000081526004018080602001828103825260208152602001807f4f776e61626c653a2063616c6c6572206973206e6f7420746865206f776e657281525060200191505060405180910390fd5b600073ffffffffffffffffffffffffffffffffffffffff166000809054906101000a900473ffffffffffffffffffffffffffffffffffffffff1673ffffffffffffffffffffffffffffffffffffffff167f8be0079c531659141344cd1fd0a4f28419497f9722a3daafe3b4186f6b6457e060405160405180910390a360008060006101000a81548173ffffffffffffffffffffffffffffffffffffffff021916908373ffffffffffffffffffffffffffffffffffffffff160217905550565b600281815481106200073057fe5b906000526020600020016000915054906101000a900473ffffffffffffffffffffffffffffffffffffffff1681565b6200076962000e7e565b73ffffffffffffffffffffffffffffffffffffffff166200078962000847565b73ffffffffffffffffffffffffffffffffffffffff161462000813576040517f08c379a00000000000000000000000000000000000000000000000000000000081526004018080602001828103825260208152602001807f4f776e61626c653a2063616c6c6572206973206e6f7420746865206f776e657281525060200191505060405180910390fd5b600360009054906101000a900460ff16156200082e57600080fd5b3373ffffffffffffffffffffffffffffffffffffffff16ff5b60008060009054906101000a900473ffffffffffffffffffffffffffffffffffffffff16905090565b60006200087c62000e7e565b73ffffffffffffffffffffffffffffffffffffffff166200089c62000847565b73ffffffffffffffffffffffffffffffffffffffff161462000926576040517f08c379a00000000000000000000000000000000000000000000000000000000081526004018080602001828103825260208152602001807f4f776e61626c653a2063616c6c6572206973206e6f7420746865206f776e657281525060200191505060405180910390fd5b81600160008273ffffffffffffffffffffffffffffffffffffffff1673ffffffffffffffffffffffffffffffffffffffff16815260200190815260200160002060009054906101000a900460ff166200097e57600080fd5b8273ffffffffffffffffffffffffffffffffffffffff1663894ba8336040518163ffffffff1660e01b8152600401602060405180830381600087803b158015620009c757600080fd5b505af1158015620009dc573d6000803e3d6000fd5b505050506040513d6020811015620009f357600080fd5b8101908080519060200190929190505050915050919050565b6000600360009054906101000a900460ff1662000a2857600080fd5b600034868686863360405162000a3e9062000e86565b808060200186815260200185815260200184600181111562000a5c57fe5b60ff1681526020018373ffffffffffffffffffffffffffffffffffffffff1673ffffffffffffffffffffffffffffffffffffffff168152602001828103825287818151815260200191508051906020019080838360005b8381101562000ad057808201518184015260208101905062000ab3565b50505050905090810190601f16801562000afe5780820380516001836020036101000a031916815260200191505b5096505050505050506040518091039082f090508015801562000b25573d6000803e3d6000fd5b50905060008190506002819080600181540180825580915050600190039060005260206000200160009091909190916101000a81548173ffffffffffffffffffffffffffffffffffffffff021916908373ffffffffffffffffffffffffffffffffffffffff16021790555060018060008373ffffffffffffffffffffffffffffffffffffffff1673ffffffffffffffffffffffffffffffffffffffff16815260200190815260200160002060006101000a81548160ff0219169083151502179055508192505050949350505050565b6060600280548060200260200160405190810160405280929190818152602001828054801562000c7a57602002820191906000526020600020905b8160009054906101000a900473ffffffffffffffffffffffffffffffffffffffff1673ffffffffffffffffffffffffffffffffffffffff168152602001906001019080831162000c2f575b5050505050905090565b62000c8e62000e7e565b73ffffffffffffffffffffffffffffffffffffffff1662000cae62000847565b73ffffffffffffffffffffffffffffffffffffffff161462000d38576040517f08c379a00000000000000000000000000000000000000000000000000000000081526004018080602001828103825260208152602001807f4f776e61626c653a2063616c6c6572206973206e6f7420746865206f776e657281525060200191505060405180910390fd5b600073ffffffffffffffffffffffffffffffffffffffff168173ffffffffffffffffffffffffffffffffffffffff16141562000dc0576040517f08c379a0000000000000000000000000000000000000000000000000000000008152600401808060200182810382526026815260200180620031b26026913960400191505060405180910390fd5b8073ffffffffffffffffffffffffffffffffffffffff166000809054906101000a900473ffffffffffffffffffffffffffffffffffffffff1673ffffffffffffffffffffffffffffffffffffffff167f8be0079c531659141344cd1fd0a4f28419497f9722a3daafe3b4186f6b6457e060405160405180910390a3806000806101000a81548173ffffffffffffffffffffffffffffffffffffffff021916908373ffffffffffffffffffffffffffffffffffffffff16021790555050565b600033905090565b61231d8062000e958339019056fe60806040526040516200231d3803806200231d833981810160405260a08110156200002957600080fd5b81019080805160405193929190846401000000008211156200004a57600080fd5b838201915060208201858111156200006157600080fd5b82518660018202830111640100000000821117156200007f57600080fd5b8083526020830192505050908051906020019080838360005b83811015620000b557808201518184015260208101905062000098565b50505050905090810190601f168015620000e35780820380516001836020036101000a031916815260200191505b50604052602001805190602001909291908051906020019092919080519060200190929190805190602001909291905050506000620001276200038d60201b60201c565b9050806000806101000a81548173ffffffffffffffffffffffffffffffffffffffff021916908373ffffffffffffffffffffffffffffffffffffffff1602179055508073ffffffffffffffffffffffffffffffffffffffff16600073ffffffffffffffffffffffffffffffffffffffff167f8be0079c531659141344cd1fd0a4f28419497f9722a3daafe3b4186f6b6457e060405160405180910390a3506000831162000220576040517f08c379a000000000000000000000000000000000000000000000000000000000815260040180806020018281038252602b815260200180620022f2602b913960400191505060405180910390fd5b823410156200022e57600080fd5b61012c8410156200023e57600080fd5b6001600660146101000a81548160ff021916908315150217905550846001908051906020019062000271929190620008ff565b506200028c84426200039560201b6200148a1790919060201c565b6002819055508260038190555081600560006101000a81548160ff02191690836001811115620002b857fe5b02179055506000600560016101000a81548160ff02191690836002811115620002dd57fe5b021790555033600660006101000a81548173ffffffffffffffffffffffffffffffffffffffff021916908373ffffffffffffffffffffffffffffffffffffffff16021790555060006004819055503373ffffffffffffffffffffffffffffffffffffffff168173ffffffffffffffffffffffffffffffffffffffff1614620003715762000370816200041e60201b60201c565b5b62000382816200062460201b60201c565b5050505050620009ae565b600033905090565b60008082840190508381101562000414576040517f08c379a000000000000000000000000000000000000000000000000000000000815260040180806020018281038252601b8152602001807f536166654d6174683a206164646974696f6e206f766572666c6f77000000000081525060200191505060405180910390fd5b8091505092915050565b6200042e6200038d60201b60201c565b73ffffffffffffffffffffffffffffffffffffffff16620004546200088660201b60201c565b73ffffffffffffffffffffffffffffffffffffffff1614620004de576040517f08c379a00000000000000000000000000000000000000000000000000000000081526004018080602001828103825260208152602001807f4f776e61626c653a2063616c6c6572206973206e6f7420746865206f776e657281525060200191505060405180910390fd5b600073ffffffffffffffffffffffffffffffffffffffff168173ffffffffffffffffffffffffffffffffffffffff16141562000566576040517f08c379a0000000000000000000000000000000000000000000000000000000008152600401808060200182810382526026815260200180620022cc6026913960400191505060405180910390fd5b8073ffffffffffffffffffffffffffffffffffffffff166000809054906101000a900473ffffffffffffffffffffffffffffffffffffffff1673ffffffffffffffffffffffffffffffffffffffff167f8be0079c531659141344cd1fd0a4f28419497f9722a3daafe3b4186f6b6457e060405160405180910390a3806000806101000a81548173ffffffffffffffffffffffffffffffffffffffff021916908373ffffffffffffffffffffffffffffffffffffffff16021790555050565b600660149054906101000a900460ff166200063e57600080fd5b60025442118015620006775750600060028111156200065957fe5b600560019054906101000a900460ff1660028111156200067557fe5b145b156200068e576200068d620008af60201b60201c565b5b6003543410156200069e57600080fd5b6000806002811115620006ad57fe5b600560019054906101000a900460ff166002811115620006c957fe5b14620006d457600080fd5b6000600760008473ffffffffffffffffffffffffffffffffffffffff1673ffffffffffffffffffffffffffffffffffffffff16815260200190815260200160002054141562000781576008829080600181540180825580915050600190039060005260206000200160009091909190916101000a81548173ffffffffffffffffffffffffffffffffffffffff021916908373ffffffffffffffffffffffffffffffffffffffff1602179055505b620007da34600760008573ffffffffffffffffffffffffffffffffffffffff1673ffffffffffffffffffffffffffffffffffffffff168152602001908152602001600020546200039560201b6200148a1790919060201c565b600760008473ffffffffffffffffffffffffffffffffffffffff1673ffffffffffffffffffffffffffffffffffffffff1681526020019081526020016000208190555062000839346004546200039560201b6200148a1790919060201c565b6004819055508173ffffffffffffffffffffffffffffffffffffffff167f7d64acc9d4044ccfe97ebec406decfbd00c7250c2addbadbd522b2dd40b6d63060405160405180910390a25050565b60008060009054906101000a900473ffffffffffffffffffffffffffffffffffffffff16905090565b6001600560019054906101000a900460ff166002811115620008cd57fe5b016002811115620008da57fe5b600560016101000a81548160ff02191690836002811115620008f857fe5b0217905550565b828054600181600116156101000203166002900490600052602060002090601f016020900481019282601f106200094257805160ff191683800117855562000973565b8280016001018555821562000973579182015b828111156200097257825182559160200191906001019062000955565b5b50905062000982919062000986565b5090565b620009ab91905b80821115620009a75760008160009055506001016200098d565b5090565b90565b61190e80620009be6000396000f3fe60806040526004361061012e5760003560e01c8063955cdfb1116100ab578063d11711a21161006f578063d11711a21461051c578063d32d9b6e14610526578063dfbf53ae1461053d578063e10b650b14610594578063f29ee083146105ab578063f2fde38b146105e45761013e565b8063955cdfb11461039b578063963671be146103c6578063a2392a931461041d578063a26dbf26146104ad578063b91038c7146104d85761013e565b8063715018a6116100f2578063715018a6146102a8578063894ba833146102bf5780638b0e9f3f146102ee5780638da5cb5b1461031957806390a006c2146103705761013e565b8063238dafe014610143578063296cf5191461017257806333b16d93146101ab57806335c1d34914610202578063375b3c0a1461027d5761013e565b3661013e5761013c33610635565b005b600080fd5b34801561014f57600080fd5b50610158610877565b604051808215151515815260200191505060405180910390f35b34801561017e57600080fd5b5061018761088a565b6040518082600281111561019757fe5b60ff16815260200191505060405180910390f35b3480156101b757600080fd5b506101c061089d565b604051808273ffffffffffffffffffffffffffffffffffffffff1673ffffffffffffffffffffffffffffffffffffffff16815260200191505060405180910390f35b34801561020e57600080fd5b5061023b6004803603602081101561022557600080fd5b8101908080359060200190929190505050610a86565b604051808273ffffffffffffffffffffffffffffffffffffffff1673ffffffffffffffffffffffffffffffffffffffff16815260200191505060405180910390f35b34801561028957600080fd5b50610292610ac2565b6040518082815260200191505060405180910390f35b3480156102b457600080fd5b506102bd610ac8565b005b3480156102cb57600080fd5b506102d4610c36565b604051808215151515815260200191505060405180910390f35b3480156102fa57600080fd5b50610303610d3b565b6040518082815260200191505060405180910390f35b34801561032557600080fd5b5061032e610d41565b604051808273ffffffffffffffffffffffffffffffffffffffff1673ffffffffffffffffffffffffffffffffffffffff16815260200191505060405180910390f35b34801561037c57600080fd5b50610385610d6a565b6040518082815260200191505060405180910390f35b3480156103a757600080fd5b506103b0610d70565b6040518082815260200191505060405180910390f35b3480156103d257600080fd5b506103db610db7565b604051808273ffffffffffffffffffffffffffffffffffffffff1673ffffffffffffffffffffffffffffffffffffffff16815260200191505060405180910390f35b34801561042957600080fd5b50610432610ddd565b6040518080602001828103825283818151815260200191508051906020019080838360005b83811015610472578082015181840152602081019050610457565b50505050905090810190601f16801561049f5780820380516001836020036101000a031916815260200191505b509250505060405180910390f35b3480156104b957600080fd5b506104c2610e7b565b6040518082815260200191505060405180910390f35b61051a600480360360208110156104ee57600080fd5b81019080803573ffffffffffffffffffffffffffffffffffffffff169060200190929190505050610635565b005b610524610e88565b005b34801561053257600080fd5b5061053b610e93565b005b34801561054957600080fd5b506105526110d3565b604051808273ffffffffffffffffffffffffffffffffffffffff1673ffffffffffffffffffffffffffffffffffffffff16815260200191505060405180910390f35b3480156105a057600080fd5b506105a96110f9565b005b3480156105b757600080fd5b506105c0611284565b604051808260018111156105d057fe5b60ff16815260200191505060405180910390f35b3480156105f057600080fd5b506106336004803603602081101561060757600080fd5b81019080803573ffffffffffffffffffffffffffffffffffffffff169060200190929190505050611297565b005b600660149054906101000a900460ff1661064e57600080fd5b6002544211801561068457506000600281111561066757fe5b600560019054906101000a900460ff16600281111561068257fe5b145b1561069257610691611512565b5b6003543410156106a157600080fd5b60008060028111156106af57fe5b600560019054906101000a900460ff1660028111156106ca57fe5b146106d457600080fd5b6000600760008473ffffffffffffffffffffffffffffffffffffffff1673ffffffffffffffffffffffffffffffffffffffff168152602001908152602001600020541415610780576008829080600181540180825580915050600190039060005260206000200160009091909190916101000a81548173ffffffffffffffffffffffffffffffffffffffff021916908373ffffffffffffffffffffffffffffffffffffffff1602179055505b6107d234600760008573ffffffffffffffffffffffffffffffffffffffff1673ffffffffffffffffffffffffffffffffffffffff1681526020019081526020016000205461148a90919063ffffffff16565b600760008473ffffffffffffffffffffffffffffffffffffffff1673ffffffffffffffffffffffffffffffffffffffff1681526020019081526020016000208190555061082a3460045461148a90919063ffffffff16565b6004819055508173ffffffffffffffffffffffffffffffffffffffff167f7d64acc9d4044ccfe97ebec406decfbd00c7250c2addbadbd522b2dd40b6d63060405160405180910390a25050565b600660149054906101000a900460ff1681565b600560019054906101000a900460ff1681565b6000600660149054906101000a900460ff166108b857600080fd5b600254421180156108ee5750600060028111156108d157fe5b600560019054906101000a900460ff1660028111156108ec57fe5b145b156108fc576108fb611512565b5b600180600281111561090a57fe5b600560019054906101000a900460ff16600281111561092557fe5b1461092f57600080fd5b600073ffffffffffffffffffffffffffffffffffffffff16600560029054906101000a900473ffffffffffffffffffffffffffffffffffffffff1673ffffffffffffffffffffffffffffffffffffffff16146109af57600560029054906101000a900473ffffffffffffffffffffffffffffffffffffffff169150610a82565b6109b761155f565b600560026101000a81548173ffffffffffffffffffffffffffffffffffffffff021916908373ffffffffffffffffffffffffffffffffffffffff160217905550600560029054906101000a900473ffffffffffffffffffffffffffffffffffffffff1673ffffffffffffffffffffffffffffffffffffffff167ffd6364b862a59cfff64f575548484f731b3e3a74b202da7feeb611803811fb0960405160405180910390a2600560029054906101000a900473ffffffffffffffffffffffffffffffffffffffff1691505b5090565b60088181548110610a9357fe5b906000526020600020016000915054906101000a900473ffffffffffffffffffffffffffffffffffffffff1681565b60035481565b610ad0611749565b73ffffffffffffffffffffffffffffffffffffffff16610aee610d41565b73ffffffffffffffffffffffffffffffffffffffff1614610b77576040517f08c379a00000000000000000000000000000000000000000000000000000000081526004018080602001828103825260208152602001807f4f776e61626c653a2063616c6c6572206973206e6f7420746865206f776e657281525060200191505060405180910390fd5b600073ffffffffffffffffffffffffffffffffffffffff166000809054906101000a900473ffffffffffffffffffffffffffffffffffffffff1673ffffffffffffffffffffffffffffffffffffffff167f8be0079c531659141344cd1fd0a4f28419497f9722a3daafe3b4186f6b6457e060405160405180910390a360008060006101000a81548173ffffffffffffffffffffffffffffffffffffffff021916908373ffffffffffffffffffffffffffffffffffffffff160217905550565b6000600660009054906101000a900473ffffffffffffffffffffffffffffffffffffffff16600073ffffffffffffffffffffffffffffffffffffffff168173ffffffffffffffffffffffffffffffffffffffff1614158015610cc357503373ffffffffffffffffffffffffffffffffffffffff168173ffffffffffffffffffffffffffffffffffffffff16145b610ccc57600080fd5b6000600660146101000a81548160ff021916908315150217905550600660149054906101000a900460ff1615157fb400ded6898cb67eeeab2c3bdc2b2f5f3aafb3eeef3c2eb49d002c8f1fa0fd6760405160405180910390a2600660149054906101000a900460ff1691505090565b60045481565b60008060009054906101000a900473ffffffffffffffffffffffffffffffffffffffff16905090565b60025481565b6000600760003373ffffffffffffffffffffffffffffffffffffffff1673ffffffffffffffffffffffffffffffffffffffff16815260200190815260200160002054905090565b600660009054906101000a900473ffffffffffffffffffffffffffffffffffffffff1681565b60018054600181600116156101000203166002900480601f016020809104026020016040519081016040528092919081815260200182805460018160011615610100020316600290048015610e735780601f10610e4857610100808354040283529160200191610e73565b820191906000526020600020905b815481529060010190602001808311610e5657829003601f168201915b505050505081565b6000600880549050905090565b610e9133610635565b565b600660149054906101000a900460ff1615610ead57600080fd5b60025442118015610ee3575060006002811115610ec657fe5b600560019054906101000a900460ff166002811115610ee157fe5b145b15610ef157610ef0611512565b5b6002806002811115610eff57fe5b600560019054906101000a900460ff166002811115610f1a57fe5b1415610f2557600080fd5b336000600760008373ffffffffffffffffffffffffffffffffffffffff1673ffffffffffffffffffffffffffffffffffffffff1681526020019081526020016000205411610f7257600080fd5b600760003373ffffffffffffffffffffffffffffffffffffffff1673ffffffffffffffffffffffffffffffffffffffff16815260200190815260200160002054471015610fbb57fe5b6000600760003373ffffffffffffffffffffffffffffffffffffffff1673ffffffffffffffffffffffffffffffffffffffff1681526020019081526020016000205490506000600760003373ffffffffffffffffffffffffffffffffffffffff1673ffffffffffffffffffffffffffffffffffffffff168152602001908152602001600020819055503373ffffffffffffffffffffffffffffffffffffffff166108fc829081150290604051600060405180830381858888f1935050505015801561108a573d6000803e3d6000fd5b503373ffffffffffffffffffffffffffffffffffffffff167f3e266c2ad2cc202f17483930e6b16678a30d79012d7293b281995b09ff3dd32760405160405180910390a2505050565b600560029054906101000a900473ffffffffffffffffffffffffffffffffffffffff1681565b600660149054906101000a900460ff1661111257600080fd5b600180600281111561112057fe5b600560019054906101000a900460ff16600281111561113b57fe5b1461114557600080fd5b600560029054906101000a900473ffffffffffffffffffffffffffffffffffffffff16600073ffffffffffffffffffffffffffffffffffffffff168173ffffffffffffffffffffffffffffffffffffffff16141580156111d057503373ffffffffffffffffffffffffffffffffffffffff168173ffffffffffffffffffffffffffffffffffffffff16145b6111d957600080fd5b6004544710156111e557fe5b600060045490503373ffffffffffffffffffffffffffffffffffffffff166108fc829081150290604051600060405180830381858888f19350505050158015611232573d6000803e3d6000fd5b50803373ffffffffffffffffffffffffffffffffffffffff167f30feb9cca70a47eaac8989afbf877fcbd223cc28379154f2501d66e410c0976260405160405180910390a350611280611512565b5050565b600560009054906101000a900460ff1681565b61129f611749565b73ffffffffffffffffffffffffffffffffffffffff166112bd610d41565b73ffffffffffffffffffffffffffffffffffffffff1614611346576040517f08c379a00000000000000000000000000000000000000000000000000000000081526004018080602001828103825260208152602001807f4f776e61626c653a2063616c6c6572206973206e6f7420746865206f776e657281525060200191505060405180910390fd5b600073ffffffffffffffffffffffffffffffffffffffff168173ffffffffffffffffffffffffffffffffffffffff1614156113cc576040517f08c379a00000000000000000000000000000000000000000000000000000000081526004018080602001828103825260268152602001806118b36026913960400191505060405180910390fd5b8073ffffffffffffffffffffffffffffffffffffffff166000809054906101000a900473ffffffffffffffffffffffffffffffffffffffff1673ffffffffffffffffffffffffffffffffffffffff167f8be0079c531659141344cd1fd0a4f28419497f9722a3daafe3b4186f6b6457e060405160405180910390a3806000806101000a81548173ffffffffffffffffffffffffffffffffffffffff021916908373ffffffffffffffffffffffffffffffffffffffff16021790555050565b600080828401905083811015611508576040517f08c379a000000000000000000000000000000000000000000000000000000000815260040180806020018281038252601b8152602001807f536166654d6174683a206164646974696f6e206f766572666c6f77000000000081525060200191505060405180910390fd5b8091505092915050565b6001600560019054906101000a900460ff16600281111561152f57fe5b01600281111561153b57fe5b600560016101000a81548160ff0219169083600281111561155857fe5b0217905550565b600080600181111561156d57fe5b600560009054906101000a900460ff16600181111561158857fe5b14156115e057600061159e600880549050611751565b9050600881815481106115ad57fe5b9060005260206000200160009054906101000a900473ffffffffffffffffffffffffffffffffffffffff16915050611746565b60006115ed600454611751565b905060008090505b600760006008838154811061160657fe5b9060005260206000200160009054906101000a900473ffffffffffffffffffffffffffffffffffffffff1673ffffffffffffffffffffffffffffffffffffffff1673ffffffffffffffffffffffffffffffffffffffff16815260200190815260200160002054821115611709576116fc600760006008848154811061168757fe5b9060005260206000200160009054906101000a900473ffffffffffffffffffffffffffffffffffffffff1673ffffffffffffffffffffffffffffffffffffffff1673ffffffffffffffffffffffffffffffffffffffff16815260200190815260200160002054836117a690919063ffffffff16565b91506001810190506115f5565b6008818154811061171657fe5b9060005260206000200160009054906101000a900473ffffffffffffffffffffffffffffffffffffffff16925050505b90565b600033905090565b600061179f824243446040516020018084815260200183815260200182815260200193505050506040516020818303038152906040528051906020012060001c61182990919063ffffffff16565b9050919050565b60008282111561181e576040517f08c379a000000000000000000000000000000000000000000000000000000000815260040180806020018281038252601e8152602001807f536166654d6174683a207375627472616374696f6e206f766572666c6f77000081525060200191505060405180910390fd5b818303905092915050565b60008082116118a0576040517f08c379a00000000000000000000000000000000000000000000000000000000081526004018080602001828103825260188152602001807f536166654d6174683a206d6f64756c6f206279207a65726f000000000000000081525060200191505060405180910390fd5b8183816118a957fe5b0690509291505056fe4f776e61626c653a206e6577206f776e657220697320746865207a65726f2061646472657373a26469706673582212204ce5b6b17a9de811b50015dc7a5015ad04e781c4ed98eda92cc56f4c2d92eaa264736f6c634300060a00334f776e61626c653a206e6577206f776e657220697320746865207a65726f2061646472657373546865206d696e696d756d207374616b652068617320746f2062652067726561746572207468616e20302e4f776e61626c653a206e6577206f776e657220697320746865207a65726f2061646472657373a26469706673582212207021abc92dcb7be88a5972484d68f382daf4d114a05762f3045747f7a55927a264736f6c634300060a0033",
  "immutableReferences": {},
  "source": "pragma solidity 0.6.10;\n\nimport \"openzeppelin-solidity/contracts/access/Ownable.sol\";\nimport \"./LotteryPot.sol\";\n\n/// @author Jimmy Chu <-- You are legend!! Get in touch, reward waiting!\n/// @title LotteryPot Contract Factory\n\ncontract LotteryPotFactory is Ownable {\n    using SafeMath for uint256;\n\n    mapping(address => bool) lotteryPotsMapping;\n    address[] public lotteryPots;\n\n    // Allowing the public to query if this factory contract is enabled.\n    bool public enabled;\n\n    // --- Event Declaration ---\n    event LotteryPotFactoryEnabled(bool indexed enabled);\n\n    // --- Functions Modifier ---\n\n    // circuit-breaker pattern\n    modifier isEnabled {\n        require(enabled);\n        _;\n    }\n\n    modifier isDisabled {\n        require(!enabled);\n        _;\n    }\n    // --- end: circuit-breaker pattern\n\n    modifier createdByThisFactory(address potAddr) {\n        require(lotteryPotsMapping[potAddr]);\n        _;\n    }\n\n    /// Empty constructor\n    constructor() public {\n        enabled = true;\n    }\n\n    /// Create a new LotteryPot contract\n    /// @dev The new LotteryPot contract is then saved in the array of this contract for future reference.\n    /// @param potName - Name of the lottery pot\n    /// @param duration - The duration of the pot `open` period\n    /// @param minStake - The minimum stake required to join the lottery pot\n    /// @param potType - refer to the LotteryPot contract for explaination\n    /// @return The created LotteryPot contract\n    function createLotteryPot(\n        string memory potName,\n        uint256 duration,\n        uint256 minStake,\n        LotteryPot.PotType potType\n    ) public payable isEnabled returns (LotteryPot) {\n        // We also pass in the owner to be recognized by the contract, and ether amount\n        //   for the owner to participate in the pot.\n        LotteryPot newContract =\n            (new LotteryPot).value(msg.value)({\n                _potName: potName,\n                _duration: duration,\n                _minStake: minStake,\n                _potType: potType,\n                _owner: msg.sender\n            });\n\n        address newAddr = address(newContract);\n\n        // Update with new contract info\n        lotteryPots.push(newAddr);\n        lotteryPotsMapping[newAddr] = true;\n        return newContract;\n    }\n\n    /// Allow retrieving the the array of created contracts\n    /// @return An array of all created LotteryPot contracts\n    function getLotteryPots() public view returns (address[] memory) {\n        return lotteryPots;\n    }\n\n    /// Toggling `enabled` status of this factory contract\n    /// @dev Only honor request from this contract owner, aka, the platform admin.\n    /// @return `enabled` status of this factory contract\n    function toggleEnabled() public onlyOwner returns (bool) {\n        enabled = !enabled;\n        emit LotteryPotFactoryEnabled(enabled);\n        return enabled;\n    }\n\n    /// Allow destruction of this factory contract\n    /// @dev Only honor request from this contract owner, aka, the platform admin.\n    function destroy() public onlyOwner isDisabled {\n        selfdestruct(msg.sender);\n    }\n\n    /// Disable a LotteryPot contract created by this factory\n    /// @dev Only honor request from this contract owner, aka, the platform admin.\n    function disableLotteryPot(address payable potAddr)\n        public\n        onlyOwner\n        createdByThisFactory(potAddr)\n        returns (bool)\n    {\n        return LotteryPot(potAddr).disableContract();\n    }\n}\n",
  "sourcePath": "/Users/edoardofoco/Documents/Projects/Personal/lottery-dapp/smart-contract/contracts/LotteryPotFactory.sol",
  "compiler": {
    "name": "solc",
    "version": "0.6.10+commit.00c0fcaf.Emscripten.clang"
  },
  "schemaVersion": "3.4.1",
  "updatedAt": "2021-06-17T18:43:08.699Z",
  "networkType": "ethereum",
  "devdoc": {
    "author": "Jimmy Chu <-- You are legend!! Get in touch, reward waiting!",
    "methods": {
      "createLotteryPot(string,uint256,uint256,uint8)": {
        "details": "The new LotteryPot contract is then saved in the array of this contract for future reference.",
        "params": {
          "duration": "- The duration of the pot `open` period",
          "minStake": "- The minimum stake required to join the lottery pot",
          "potName": "- Name of the lottery pot",
          "potType": "- refer to the LotteryPot contract for explaination"
        },
        "returns": {
          "_0": "The created LotteryPot contract"
        }
      },
      "destroy()": {
        "details": "Only honor request from this contract owner, aka, the platform admin."
      },
      "disableLotteryPot(address)": {
        "details": "Only honor request from this contract owner, aka, the platform admin."
      },
      "getLotteryPots()": {
        "returns": {
          "_0": "An array of all created LotteryPot contracts"
        }
      },
      "owner()": {
        "details": "Returns the address of the current owner."
      },
      "renounceOwnership()": {
        "details": "Leaves the contract without owner. It will not be possible to call `onlyOwner` functions anymore. Can only be called by the current owner. NOTE: Renouncing ownership will leave the contract without an owner, thereby removing any functionality that is only available to the owner."
      },
      "toggleEnabled()": {
        "details": "Only honor request from this contract owner, aka, the platform admin.",
        "returns": {
          "_0": "`enabled` status of this factory contract"
        }
      },
      "transferOwnership(address)": {
        "details": "Transfers ownership of the contract to a new account (`newOwner`). Can only be called by the current owner."
      }
    },
    "title": "LotteryPot Contract Factory"
  },
  "userdoc": {
    "methods": {
      "constructor": "Empty constructor",
      "createLotteryPot(string,uint256,uint256,uint8)": {
        "notice": "Create a new LotteryPot contract"
      },
      "destroy()": {
        "notice": "Allow destruction of this factory contract"
      },
      "disableLotteryPot(address)": {
        "notice": "Disable a LotteryPot contract created by this factory"
      },
      "getLotteryPots()": {
        "notice": "Allow retrieving the the array of created contracts"
      },
      "toggleEnabled()": {
        "notice": "Toggling `enabled` status of this factory contract"
      }
    }
  }
}